:020000040800F2
:1000000048150020118E0008ED73000805740008E3
:10001000097400080D740008117400080000000045
:10002000000000000000000000000000157400083F
:1000300019740008000000001D74000835740008E1
:10004000858E0008858E000800000000858E00085F
:10005000858E0008858E0008858E0008858E000834
:10006000858E0008858E0008858E0008858E000824
:10007000858E0008858E0008858E0008858E000814
:10008000858E0008858E0008858E0008858E000804
:10009000858E0008858E0008858E0008858E0008F4
:1000A000858E0008858E0008858E0008858E0008E4
:1000B000858E0008858E0008858E0008858E0008D4
:1000C000858E0008858E0008858E0008858E0008C4
:1000D000858E0008858E0008858E0008858E0008B4
:1000E000858E0008858E0008858E0008858E0008A4
:1000F000858E0008858E0008858E0008858E000894
:1001000025740008858E000800000000858E000818
:100110000000000000000000858E0008858E0008A9
:10012000858E0008858E0008858E0008858E000863
:10013000858E000800000000858E0008858E00086E
:10014000858E0008858E0008858E0008858E000843
:0C015000858E000821740008858E0008D0
:1001600081F0004102E000BF83F0004330B54FEA68
:1001700041044FEA430594EA050F08BF90EA020FD5
:100180001FBF54EA000C55EA020C7FEA645C7FEA68
:10019000655C00F0E2804FEA5454D4EB5555B8BF8B
:1001A0006D420CDD2C4480EA020281EA030382EAFC
:1001B000000083EA010180EA020281EA0303362D8E
:1001C00088BF30BD11F0004F4FEA01314FF4801C61
:1001D0004CEA113102D0404261EB410113F0004F73
:1001E0004FEA03334CEA133302D0524263EB43032A
:1001F00094EA050F00F0A780A4F10104D5F1200EC8
:100200000DDB02FA0EFC22FA05F2801841F1000122
:1002100003FA0EF2801843FA05F359410EE0A5F1F6
:1002200020050EF1200E012A03FA0EFC28BF4CF027
:10023000020C43FA05F3C01851EBE37101F00045DD
:1002400007D54FF0000EDCF1000C7EEB00006EEBEA
:100250000101B1F5801F1BD3B1F5001F0CD3490874
:100260005FEA30004FEA3C0C04F101044FEA4452CB
:1002700012F5800F80F09A80BCF1004F08BF5FEA52
:10028000500C50F1000041EB045141EA050130BD32
:100290005FEA4C0C404141EB0101013C28BFB1F544
:1002A000801FE9D291F0000F04BF01460020B1FA8F
:1002B00081F308BF2033A3F10B03B3F120020CDA62
:1002C0000C3208DD02F1140CC2F10C0201FA0CF040
:1002D00021FA02F10CE002F11402D8BFC2F1200CA5
:1002E00001FA02F120FA0CFCDCBF41EA0C0190405B
:1002F000E41AA2BF01EB0451294330BD6FEA0404A4
:100300001F3C1CDA0C340EDC04F11404C4F120028E
:1003100020FA04F001FA02F340EA030021FA04F3A0
:1003200045EA030130BDC4F10C04C4F1200220FAF7
:1003300002F001FA04F340EA0300294630BD21FA35
:1003400004F0294630BD94F0000F83F4801306BFFB
:1003500081F480110134013D4EE77FEA645C18BFEF
:100360007FEA655C29D094EA050F08BF90EA020F86
:1003700005D054EA000C04BF1946104630BD91EA7E
:10038000030F1EBF0021002030BD5FEA545C05D181
:100390004000494128BF41F0004130BD14F58004C0
:1003A0003CBF01F5801130BD01F0004545F0FE4134
:1003B00041F470014FF0000030BD7FEA645C1ABF69
:1003C000194610467FEA655C1CBF0B46024650EAA0
:1003D000013406BF52EA033591EA030F41F40021CC
:1003E00030BD00BF90F0000F04BF0021704730B552
:1003F0004FF4806404F132044FF000054FF0000127
:1004000050E700BF90F0000F04BF0021704730B5E7
:100410004FF4806404F1320410F0004548BF4042BC
:100420004FF000013EE700BF42004FEAE2014FEA11
:1004300031014FEA02701FBF12F07F4393F07F4FEC
:1004400081F06051704732F07F4208BF704793F0EF
:100450007F4F04BF41F40021704730B54FF4607402
:1004600001F0004521F000411CE700BF50EA010205
:1004700008BF704730B54FF000050AE050EA0102AE
:1004800008BF704730B511F0004502D5404261EB1E
:1004900041014FF4806404F132045FEA915C3FF45F
:1004A000D8AE4FF003025FEADC0C18BF03325FEAFC
:1004B000DC0C18BF033202EBDC02C2F1200300FAAD
:1004C00003FC20FA02F001FA03FE40EA0E0021FAD2
:1004D00002F11444BDE600BF80F0004002E000BF1E
:1004E00081F0004142001FBF5FEA410392EA030F1F
:1004F0007FEA226C7FEA236C6AD04FEA1262D2EB69
:100500001363C1BFD218414048404140B8BF5B426D
:10051000192B88BF704710F0004F40F4000020F006
:100520007F4018BF404211F0004F41F4000121F01C
:100530007F4118BF494292EA030F3FD0A2F1010266
:1005400041FA03FC10EB0C00C3F1200301FA03F1A4
:1005500000F0004302D5494260EB4000B0F5000FC7
:1005600013D3B0F1807F06D340084FEA310102F186
:100570000102FE2A51D2B1F1004F40EBC25008BF38
:1005800020F0010040EA03007047490040EB000002
:10059000013A28BFB0F5000FEDD2B0FA80FCACF103
:1005A000080CB2EB0C0200FA0CF0AABF00EBC25030
:1005B00052421843BCBFD0401843704792F0000F1E
:1005C00081F4000106BF80F400000132013BB5E771
:1005D0004FEA41037FEA226C18BF7FEA236C21D0E7
:1005E00092EA030F04D092F0000F08BF084670474C
:1005F00090EA010F1CBF0020704712F07F4F04D11A
:10060000400028BF40F00040704712F100723CBF2C
:1006100000F50000704700F0004343F0FE4040F456
:10062000000070477FEA226216BF08467FEA236314
:100630000146420206BF5FEA412390EA010F40F4FF
:10064000800070474FF0000304E000BF10F000434B
:1006500048BF40425FEA000C08BF704743F0964332
:1006600001464FF000001CE050EA010208BF70474D
:100670004FF000030AE000BF50EA010208BF7047D4
:1006800011F0004302D5404261EB41015FEA010CE9
:1006900002BF84460146002043F0B64308BFA3F1E1
:1006A0008053A3F50003BCFA8CF2083AA3EBC253C3
:1006B00010DB01FA02FC634400FA02FCC2F12002E2
:1006C000BCF1004F20FA02F243EB020008BF20F019
:1006D0000100704702F1200201FA02FCC2F120027F
:1006E00050EA4C0021FA02F243EB020008BF20EA74
:1006F000DC7070474FF0FF0C1CEAD0521EBF1CEAA2
:10070000D15392EA0C0F93EA0C0F6FD01A4480EA8F
:10071000010C400218BF5FEA41211ED04FF0006378
:1007200043EA501043EA5111A0FB01310CF00040A4
:10073000B1F5000F3EBF490041EAD3715B0040EACA
:10074000010062F17F02FD2A1DD8B3F1004F40EB9A
:10075000C25008BF20F00100704790F0000F0CF06D
:10076000004C08BF49024CEA502040EA51207F3A31
:10077000C2BFD2F1FF0340EAC250704740F400000C
:100780004FF00003013A5DDC12F1190FDCBF00F0FD
:1007900000407047C2F10002410021FA02F1C2F1AB
:1007A000200200FA02FC5FEA310040F1000053EA47
:1007B0004C0308BF20EADC70704792F0000F00F095
:1007C000004C02BF400010F4000F013AF9D040EA9B
:1007D0000C0093F0000F01F0004C02BF490011F42F
:1007E000000F013BF9D041EA0C018FE70CEAD1532D
:1007F00092EA0C0F18BF93EA0C0F0AD030F0004CAD
:1008000018BF31F0004CD8D180EA010000F0004060
:10081000704790F0000F17BF90F0004F084691F01E
:10082000000F91F0004F14D092EA0C0F01D1420258
:100830000FD193EA0C0F03D14B0218BF084608D121
:1008400080EA010000F0004040F0FE4040F400006B
:10085000704740F0FE4040F4400070474FF0FF0CFE
:100860001CEAD0521EBF1CEAD15392EA0C0F93EA45
:100870000C0F69D0A2EB030280EA010C49024FEA97
:10088000402037D04FF0805343EA111143EA101350
:100890000CF000408B4238BF5B0042F17D024FF408
:1008A000000C8B4224BF5B1A40EA0C00B3EB510FE3
:1008B00024BFA3EB510340EA5C00B3EB910F24BFCC
:1008C000A3EB910340EA9C00B3EBD10F24BFA3EB51
:1008D000D10340EADC001B0118BF5FEA1C1CE0D119
:1008E000FD2A3FF650AF8B4240EBC25008BF20F0CC
:1008F000010070470CF0004C4CEA50207F32C2BF20
:10090000D2F1FF0340EAC250704740F400004FF0BC
:100910000003013A37E792F0000F00F0004C02BFED
:10092000400010F4000F013AF9D040EA0C0093F0B7
:10093000000F01F0004C02BF490011F4000F013B11
:10094000F9D041EA0C0195E70CEAD15392EA0C0F79
:1009500008D142027FF47DAF93EA0C0F7FF470AFB1
:10096000084676E793EA0C0F04D14B023FF44CAFF4
:1009700008466EE730F0004C18BF31F0004CCAD189
:1009800030F000427FF45CAF31F000437FF43CAFC5
:100990005FE700BF70B5860747D0541E002A3ED0DF
:1009A000CAB2034601E0013C39D303F8012B9D078D
:1009B000F9D1032C2CD9CDB20F2C05EB052505EB75
:1009C000054535D9A4F1100C03F1100E1A462CF090
:1009D0000F064FEA1C1CB644C2E90055C2E9025595
:1009E00010327245F8D10CF1010214F00C0F04F032
:1009F0000F0C03EB021213D0ACF1040323F003033A
:100A00000433134442F8045B9342FBD10CF003041B
:100A10002CB1C9B21C4403F8011BA342FBD170BD29
:100A200064461346002CF4D1F9E703461446C0E7A8
:100A30001A46A446E0E700BF014B1868704700BFA4
:100A400000000020844641EA000313F0030349D16B
:100A5000403A23D30B6803604B6843608B68836024
:100A6000CB68C3600B6903614B6943618B69836128
:100A7000CB69C3610B6A03624B6A43628B6A836210
:100A8000CB6AC3620B6B03634B6B43638B6B8363F8
:100A9000CB6BC36340304031403ADBD230320BD3B2
:100AA0000B6803604B6843608B688360CB68C360EE
:100AB00010301031103AF3D20C3205D351F8043B08
:100AC00040F8043B043AF9D2043208D0D2071CBFE4
:100AD00011F8013B00F8013B01D30B88038060460D
:100AE000704700BF082A13D38B07B1D010F003035F
:100AF000AED0C3F10403D21ADB071CBF11F8013BCF
:100B000000F8013BA4D331F8023B20F8023B9FE7F9
:100B1000043AD9D3013A11F8013B00F8013BF9D26C
:100B20000B7803704B7843708B7883706046704706
:100B30000F4B70B50F4DAB42A3EB050607D0B610B7
:100B40000024013455F8043B9847A642F9D80A4DD1
:100B500007F0B2FB094B5E1BAB424FEAA60606D07C
:100B60000024013455F8043B9847A642F9D870BDDB
:100B7000189E0008189E0008189E0008189E00087D
:100B800000207047024A0349034800F063BB00BFDE
:100B90002801002065430008080000200C4B416834
:100BA000994210B5044601D003F0DCFBA168094B63
:100BB000994202D0204603F0D5FBE168064B9942EA
:100BC00004D02046BDE8104003F0CCBB10BD00BFF0
:100BD000C40600202C070020940700200020704746
:100BE0002DE9F8432A4900252A4C04230822DFF87E
:100BF000A890C4F8381104F15C002946DFF89C8005
:100C0000274F284EE36025606566A561C4E901555C
:100C1000C4E90455FFF7BEFE234B0822294604F120
:100C2000C40063672567C4F8CC50C4F88050E662FE
:100C3000C4E90749C4E90987C4E91A55C4E91E553E
:100C4000FFF7A8FE04F1680329460822C4F884309F
:100C500004F59670154BC4F8D850C4F8DC30C4F8CD
:100C60003451C4F8E850C4E92298C4E92476C4E9B0
:100C70003455C4E93855FFF78DFE04F1D003C4E9BB
:100C80003C98C4E93E76C4F8EC30BDE8F88300BF78
:100C9000850B0008C40600201144000839440008F0
:100CA00079440008A1440008090001001200020074
:100CB000F8B5254B0646D3F83831002B3DD0234FED
:100CC000D7E90134013B04D51DE05A1C04F1680446
:100CD00019D0B4F90C50013B002DF6D11C4B082261
:100CE000294604F15C006566E3602560A561C4E9FE
:100CF0000155C4E90455FFF74DFEC4E90C55C4E99C
:100D000011552046F8BD3D680DB12F46D8E74FF488
:100D1000D671304601F0BAFE044688B1042305605E
:100D20000C302946254640F8083C4FF4D072A060AC
:100D3000FFF730FE3C602F46C2E7FFF751FFBEE7EA
:100D40000C2338603360DCE7C40600202801002053
:100D50000100FFFF436B03B17047044B044AD3F813
:100D600038314263002BF7D13AE700BFC4060020B8
:100D70009D0B0008704700BF704700BF024A00206B
:100D8000024900F067BA00BF28010020810B00086B
:100D9000024A0020024900F05DBA00BF280100208D
:100DA000DD0B000830B504468BB008460D4600F058
:100DB000B3F9164B01220695089306AB85180992E4
:100DC00003930222636BA1680790CDE90425A3B1C8
:100DD000B1F90C204B6E900405D442F4005223F478
:100DE00000538A814B669B040DD403AA204600F071
:100DF00017F840B90A200BB030BD20460191FFF72B
:100E0000A9FF0199E4E74FF0FF30F4E7749300087D
:100E1000024B01461868FFF7C5BF00BF0000002065
:100E20009368002B00F0F780B1F90CC01CF0080F9C
:100E30002DE9F04F904683B081460C4631D00B69C6
:100E40007BB31CF00207D8F8006038D00027D4F834
:100E500024B0E169DFF8BCA23D4655452B463A4631
:100E6000484628BF5346C5B1D847002840F3C9803B
:100E7000D8F8083007442D1A1B1AC8F80830002B80
:100E800000F0B58055452B46D4F824B03A46E169C8
:100E900028BF53464846002DE6D1D6E900750836EE
:100EA000DBE72146484603F0A3F8002840F0AE8077
:100EB000B4F90CC0D8F800601CF00207C6D11CF0D1
:100EC000010A64D123685746A16818468B46002F53
:100ED00059D01CF4007F00F0B280B9420A4600F2FB
:100EE000DE801CF4906F30D021695D1A636913EBCA
:100EF000430348BF01334FEA630B6B1C3B445A4624
:100F00005B4501D99B461A461CF4806F00F0E680D1
:100F10001146484601F0BAFD002800F0F5802A4647
:100F200021690190FFF78EFDA289019B22F4906256
:100F300042F08002A2815819C4F814B0ABEB050549
:100F40003A46BB462361A56020605146019201F0FC
:100F50001DFDA16823683D46019AA1EB0B01002706
:100F60001A44A1602260D8F80830AA445B1BC8F874
:100F70000830002B3BD02368A168B4F90CC0184698
:100F80008B46002FA5D1D6E900A708369DE7384645
:100F9000BB463D46002D40D0002845D03A46A168CA
:100FA000AA426369206828BF2A4603EB010A216927
:100FB000884202D9524500F38280934272DC5A463D
:100FC000E1694846D4F824C0E047B0F1000A18DDD2
:100FD000B7EB0A070FD00120D8F80830D344A5EBAF
:100FE0000A05A3EB0A03C8F80830002BD2D1002071
:100FF00003B0BDE8F08F2146484601F08DFC002883
:10100000EAD0B4F90C3043F04003A3814FF0FF3035
:1010100003B0BDE8F08F002070477568334608368E
:10102000002DFAD0D3F800B02A460A21584600F025
:10103000C5F8002865D00130A0EB0B07AEE72269A8
:101040009A4214D36269BA4211D86FF00043656ABC
:10105000E1694846BB4228BF3B4693FBF2F302FBE3
:1010600003F35246A847051ECBDD7F1B7BE7B94241
:10107000184628BF39460D4651462A4601F086FCDF
:10108000A1682368491B2B44A16023600029ECD18F
:101090002146484601F040FC0028E6D0B1E7BB46B7
:1010A0003A4652E75946019201F070FC019AA36852
:1010B00092469B1AA36023681344236088E759462D
:1010C000524601F063FC236821464846534423609E
:1010D00001F022FC00283FF47BAF92E7484603F082
:1010E000E3F9034600287FF426AF2169484603F060
:1010F0003DF8B4F90C300C2223F08003C9F800202D
:1011000081E76A1C17464AE70C22B4F90C30C9F88B
:10111000002078E700FCFF7F20F0030110F00300BF
:10112000C0F1000051F8043B00F1040C4FEACC0C74
:101130006FF000021CBF22FA0CF213434FF0010CB7
:101140004CEA0C2C4CEA0C4CA3EB0C0222EA0302F6
:1011500012EACC1204BF51F8043B0430F4D0C2F1BF
:10116000000102EA0102B2FA82F2C2F11F0200EBB0
:10117000D20070470EB400B582B0816803AB53F85B
:10118000042B019300F088F802B05DF804EB03B083
:10119000704700BF0FB4084900B583B0086804ABBE
:1011A000816853F8042B019300F076F803B05DF8E2
:1011B00004EB04B0704700BF000000205FFA81FC20
:1011C000810744D00346511E22B909E09A0709D08D
:1011D000013905D31846013302786245F6D17047CC
:1011E00000207047184603290CD80029F8D0034680
:1011F000014401E08B42F3D0184613F8012B6245FD
:10120000F8D1704710B50CEB0C24024604EB0444F3
:1012100002E00439032915D9104652F8043B634013
:10122000A3F1013E2EEA030313F0803FF1D0034601
:10123000014401E08B4208D0184613F8012B6245A7
:10124000F8D110BD10460029F1D1002010BD114683
:10125000C9E700BF2DE9F8434FF00009074688466B
:101260001646D6E90154013D0FD4A389012B08D9B4
:10127000B4F90E3021463846013302D0C04749EA5E
:101280000009013D68346B1CEFD13668002EE8D1AF
:101290004846BDE8F88300BF2DE9F04FC3B01C46B7
:1012A0009046054608910D930C9004F071F8026881
:1012B00010461492FFF730FF13901DB16B6B002B9B
:1012C00000F0E7870899B1F90C204B6E900405D423
:1012D00042F4005223F400538A814B669F0401F1CB
:1012E0006481089AB2F90C301E0740F1BA80126985
:1012F000002A00F0B68003F01A030A2B00F0C08029
:1013000000230024C3469C46CDE9263332ABE04699
:10131000CDF828C09A4625930023CDE915CCCDE918
:1013200010349BF800305C46DBB1252B19D02546E4
:1013300014F8013F0BB1252BF9D1B4EB0B0610D0FB
:10134000279B33442793269B0133072B2693CAE917
:1013500000B600F3A4800AF1080A0A9B33440A93FA
:101360006B78002B00F0A4804FF0000304F1010B18
:1013700065784FF0FF398DF8773000230993069395
:101380000BF1010BA5F12003582B00F29E80DFE842
:1013900013F003029C009C00FC019C009C009C003C
:1013A0009C009C009C009301F6019C009E01BB01E7
:1013B0009C00EF015900590059005900590059008B
:1013C0005900590059009C009C009C009C009C0006
:1013D0009C009C009C009C009C00D60112019C007B
:1013E00012019C009C009C009C0057029C009C00E9
:1013F00042029C009C009C009C009C000E029C00F1
:101400009C007C069C009C009C009C009C009C0016
:101410009C009C009C009C00AC0160011201120128
:101420001201A50160019C009C00AD029C009F027E
:101430009F068C0285029C005E029C00A2069C0016
:101440009C00A506A5F13003002202EB82021BF8E6
:10145000015B03EB4202A5F13003092BF5D9099298
:1014600090E7089D0C98294602F0C2FD002841F043
:101470009C80B5F90C3003F01A030A2B7FF440AFBF
:10148000089BB3F90E30002BFFF63AAF23464246D5
:1014900008990C9843B0BDE8F04F01F073B925AA44
:1014A00008990C9803F0F6F930B90DF1C80A54E721
:1014B000279B002B40F0BD87089B9B895B0601F1B1
:1014C00074800A9843B0BDE8F08F0E95002DEFD0E0
:1014D000002328AE8DF8A0508DF8773001230793B4
:1014E0000B934FF000094B46CDF83C90069A279C91
:1014F00012F0840505D1099A0799571A002F00F3B5
:101500007E839DF8772082B1269A0DF17701013410
:101510000132CAF8001001212794072A2692CAF83E
:10152000041000F3AF830AF1080A7BB1269A1EA9C2
:1015300002340132CAF8001002212794072A2692A9
:10154000CAF8041000F3AC830AF1080A802D00F0F9
:1015500033820B9BA9EB0307002F00F37882069BD5
:10156000DF0500F1CD810B9BCAF800601C44CAF86E
:101570000430269B27940133072B269300F3E8823F
:101580000AF1080A069B5A0705D5099B079A9D1A76
:10159000002D00F391830799DDE909238A42ACBF4E
:1015A0009B185B180A93002C40F0BC8200230DF1BD
:1015B000C80A2693B5E60D9B4FF0FF320E95073310
:1015C00023F00701B24BF1E802450D9125F00041EF
:1015D00018941991DDE91867CDE910453046394670
:1015E00005F0ECF9002840F0A8844FF0FF32A84B3A
:1015F0003046394605F0C4F9002840F09E840022A8
:1016000000232046294605F0B1F9002840F0B286B3
:101610009DF87730069A9F4E22F0800206929E4AED
:101620000E994FF000094729D8BF16460322CDF87E
:101630003C9007920B9213B1079B01330793069BD3
:1016400013F002033FF452AF079B023307930223C8
:101650004CE7069B0E959D0679D50D9B073323F02D
:1016600007031A46596852F8083B0D920A460029AA
:10167000C0F25184B9F1000F08DB069921F0800017
:1016800003D153EA020100F0BF8006900A2B72F1E9
:10169000000180F00F8630330DF1C7068DF8C7309A
:1016A00001230B930B9A9DF877304A45B8BF4A4601
:1016B000079200220F92BEE70D9B53F8042B002ADD
:1016C000099280F23584099A0D9352420992069B41
:1016D0009BF8005043F00403069351E6069B9BF8E9
:1016E000005043F0400306934AE60D9B002228AECB
:1016F0000E958DF8772053F8042B0D9301238DF868
:10170000A02007930B93ECE65A4612F8015B2A2DB2
:1017100000F0F587A5F13003092B00F24F874FF059
:10172000000909EB890912F8015B03EB4909A5F1EE
:101730003003092BF5D949EAE979934622E6069B5D
:101740000E9543F010030693069B9D0685D40D9AD3
:1017500052F8043B0D92069AD40600F1D783069AFC
:10176000500640F1D38343F3C0321BB211467EE7EB
:10177000069B9BF8005043F08003069300E62B2362
:101780009BF800508DF87730FAE5069B9BF80050E7
:1017900043F001030693F3E59DF877309BF8005082
:1017A000002B7FF4EDAD20238DF87730E8E5069B24
:1017B0000E9543F010030693069B13F0200200F0F1
:1017C00095830D9B0121073323F0070318465A68C0
:1017D00050F8083B0D900020B9F1000F8DF877000C
:1017E000C0F26E81069853EA020420F0800040F0B7
:1017F0006681B9F1000F40F0628129B9069B13F0B0
:1018000001030B9340F003834FF0000932AE0690C2
:10181000CDF82C9046E7069B0E9543F010030693F7
:10182000069B13F0200200F04D830D9B002107332F
:1018300023F0070318465A6850F8083B0D90CAE792
:10184000069B9BF8005043F00803069398E50D9C17
:1018500000270E9554F8046B8DF87770002E00F079
:101860005684B9F1000FC0F26A854A4639463046BF
:10187000FFF7A4FC002800F08986821BB9469DF87A
:1018800077300B9222EAE2720D9407920F97D2E61C
:10189000FFFFEF7F909C00088C9C0008069B9BF844
:1018A000005043F0200306936AE5069B78200D9ACA
:1018B00043F00203AC490E90069347F630031691AD
:1018C0000221ADF8783052F8043B0D92002282E7F5
:1018D000069B9D0640F1CC830D9B0A9A1B681A60FB
:1018E000D2175A600D9B04330D931AE59BF80050F4
:1018F000069B6C2D00F0028443F0100306933FE535
:101900000E9B652B40F3368100220023DDE9100198
:1019100005F022F8002800F00D82269B0134934A3E
:1019200001332794CAF800200122072B2693CAF816
:10193000042000F3A1840AF1080A1F9B434580F2AA
:10194000F282139B149A1C44CAE90023269B279415
:101950000133072B269300F3C5830AF1080A08F127
:10196000FF35002D7FF70EAE102D269B40F3E1864C
:101970007F49224610260C9FDDF820900C461291DC
:1019800003E0103D102D40F3D68001331032072BB9
:10199000CAE90046CDE926320AF1080AF1DD25AA96
:1019A0004946384602F076FF00287FF485AD0DF1F8
:1019B000C80ADDE92632E4E7099B079A9F1A002F3F
:1019C0007FF7C7AD102F269B40F34486DFF8A0C1F8
:1019D00052462046C2461025B04619460C9C664623
:1019E000CDF848C002E0103F102F17DD0131103054
:1019F0000729C2E90065CDE9261002F10802F2DDEF
:101A000025AA0899204602F045FF00287FF454AD2E
:101A1000103F32AA102FDDE92610E7DC46460446C7
:101A2000D0460B4692460133129A3C44CAF80470E1
:101A3000072BCAF80020CDE9263400F373840B9BF2
:101A40000AF1080AA9EB0307002F7FF788AD484A7F
:101A5000102F269B129223DD22464FF010090C9D79
:101A6000089C02E0103F102F19DD0133103240496D
:101A7000072BCAE90019CDE926320AF1080AF1DD7F
:101A800025AA214628460DF1C80A02F003FF0028C6
:101A90007FF412AD103F102FDDE92632E5DC14464D
:101AA0000133129A3C44CAF80470072BCAF800208C
:101AB000CDE9263400F3F9810AF1080A4FE50690D2
:101AC00001293FF4E3AD022932AE10D1169803F09C
:101AD0000F011B09415C43EA0273120906F8011D5C
:101AE00053EA0201F3D132AB9B1B0B93DAE503F00F
:101AF0000701DB08304643EA42733031D20806F86A
:101B0000011D53EA0204F2D13029ECD0069BDB0719
:101B1000E9D53023023806F8013C32AB06461B1AE1
:101B20000B93BFE525AA08990C9802F0B3FE002894
:101B30003FF43CADC0E41446129A2C44CAF8045059
:101B4000CAF800200133072BCDE926347FF718AD02
:101B500025AA08990C9802F09DFE00287FF4ACACF1
:101B6000279C0DF1C80A0DE5B09C0008CC9C00082C
:101B7000B08E0008269DB8F1010F04F101040AF1AE
:101B8000080705F1010540F34A810123072DCAF832
:101B90000060CAF80430CDE9265400F32183139B7A
:101BA0000135149A1C44072DC7E90023CDE92654BA
:101BB00000F30A8308370022002308F1FF39DDE92A
:101BC000100104F0C9FE002840F0438101350136C0
:101BD0004C44C7F80490072D3E60CDE9265400F32D
:101BE0002C810837159B01351C447B60072D21ABE8
:101BF000CDE926543B60ABDC07F1080AC2E4102FA4
:101C0000269A40F3CE84DFF8DCC251462046C24615
:101C10000C9CB046CDF848C02E461793654602E0AE
:101C2000103F102F19DD0132103010230D60072AEC
:101C300001F1080141F8043CCDE92620F0DD0899C6
:101C400025AA204602F026FE32A900287FF434ACF3
:101C5000103F102FDDE92620E5DC3546179B464670
:101C60000446D0468A46013212993C44CAF80470B0
:101C7000072ACAF80010CDE9262400F3BD820AF134
:101C8000080A3EE425AA08990C98129302F002FE75
:101C900000287FF411AC279C0DF1C80A129B44E484
:101CA00025AA08990C9802F0F5FD00287FF404ACF1
:101CB000279C0DF1C80A49E4102D269B40F37A8435
:101CC0008849224610260C9FDDF820900C46129180
:101CD00002E0103D102D18DD01331032072BCAE948
:101CE0000046CDE926320AF1080AF2DD25AA494666
:101CF00038460DF1C80A02F0CDFD00287FF4DCABB8
:101D0000103D102DDDE92632E6DC14460133129A2F
:101D10002C44072BCAE90025CDE926347FF73BACDC
:101D200025AA08990C9802F0B5FD00287FF4C4ABF1
:101D3000279C30E41F9A002A40F36D820F9F47458D
:101D4000A8BF4746002F0BDD269B3C440133279458
:101D5000072B2693CAE9006700F3DE830AF1080A1D
:101D60000F9D002FA8BFED1B002D00F3DA811F9BF4
:101D70004345C0F20082069AD00700F1FC810F9A19
:101D8000A8EB0303A8EB02059D42A8BF1D46002D4A
:101D90000EDD1644269A2C44CAF804500132CAF8C3
:101DA00000602794072A269200F3DB830AF1080AD1
:101DB000002DACBF5E1B1E46002E7FF7E3AB102E3E
:101DC000269B40F3BA844849224610250C9FDDF833
:101DD00020900C46129103E0103E102E40F37183C8
:101DE00001331032072BCAE90045CDE926320AF14A
:101DF000080AF1DD25AA4946384602F04BFD0028C5
:101E00007FF45AAB0DF1C80ADDE92632E4E730234E
:101E100089460DF1C70606908DF8C73042E4069B4F
:101E2000D9073FF5B2AE0123072DCAF80060CAF802
:101E30000430CDE926547FF7D5AE25AA08990C9831
:101E400002F028FD00287FF437AB32AFDDE92654DD
:101E5000C8E6B8F1010F7FF7C5AE234BB8F1110FFB
:101E6000129340F37B8222461026DDF830A01C46F8
:101E700005E0A9F11009B9F1100F40F36E820135A8
:101E80001032072DC7E90046CDE9265207F10807B1
:101E9000EFDD25AA0899504602F0FCFC00287FF4EB
:101EA0000BAB32AFDDE92652E3E725AA08990C987F
:101EB00002F0F0FC00287FF4FFAA279C0DF1C80A6D
:101EC000FFF74DBB0D9951F8043B0D91069911F0A8
:101ED000100105D1069A12F0400201D00A469BB2C9
:101EE000114678E4A08E0008B08E00080D9951F8D4
:101EF000043B0D91069911F0100105D1069A12F0DC
:101F0000400201D09BB20A46012164E4DA1711466F
:101F10000029BFF6AFAB5B424FF02D004FF001013F
:101F200062EB420258E4069BDE077FF52BAB08E527
:101F30009BF800500D93FFF723BADDE9100102462C
:101F40000B4604F03BFD002840F0B5830E9BB9F131
:101F5000FF3F23F02003079300F0DB82B9F1000F6D
:101F600003D1472B08BF4FF001090698DDE9101295
:101F700040F48075002AC0F291820027DDE9103418
:101F8000CDE91A340E9B652B00F05A8200F3D08203
:101F9000452B00F0558223AB0C98CDF804900493A8
:101FA00020AB03931FAB029302230093DDE91A23B6
:101FB00001F0B2F8069B0646D90700F1FE81239B8B
:101FC000A3EB00081F9B0F930F9BDA1C02DB9945C4
:101FD00080F280820E9B023B0E930E9B8DF8843024
:101FE0000F9B591E00291F91C0F238832B2309290A
:101FF0008DF8853040F31B830DF1930CDFF89CE2E4
:102000006446AEFB01390A462046013C4FEAD90935
:10201000632A09EB8903A1EB4303494603F130032B
:1020200000F8013CEDDC831E3031634504F8011CEF
:1020300080F07C830DF1850213F8011B634502F8E3
:10204000011FF9D142AB181AA0F171031593159B2A
:10205000B8F1010F43440B9340F3F2820B9B139AA8
:10206000134400220B9323EAE3730F920793D6E104
:10207000069BDC0600F18E80069B580640F18A80A4
:102080000D9B0A9A1B681A802CE4854B0E951693BB
:10209000069B13F0200200F086800D9B073323F08F
:1020A000070319465A6851F8083B0D910698C10775
:1020B00076D553EA020173D040F0020106910E99E1
:1020C0008DF8791030218DF878100221FFF783BB4D
:1020D0000E95FFF7A5BB0E95FFF76EBB714B0E95E6
:1020E0001693D5E725AA08990C9802F0D3FB00288F
:1020F0007FF4E2A9279C0DF1C80A30E443F02003E5
:102100009BF801500BF1010B0693FFF739B94B46D1
:10211000654E0D94062B28BF06230B930793FFF7FC
:10212000E0B9102D269B40F3FE82604821460B96B5
:1021300010271A46DDF83090089C0646129003E0FE
:10214000103D102D40F31B8101321031072ACAE9DE
:102150000067CDE926210AF1080AF1DD25AA21460A
:10216000484602F097FB00287FF4A6A90DF1C80AA3
:10217000DDE92621E4E7139A14991444CAE9001210
:10218000269A27940132072A269200F38D810AF1BC
:10219000080AF4E50D9B0A9A1B681A60FFF7A2BBB8
:1021A0000221FFF718BB0D9951F8043B0D910699D8
:1021B00011F010017FF47AAF069A12F040023FF45A
:1021C00075AF9BB20A4671E725AA08990C9802F0F0
:1021D00061FB00287FF470A932AFDDE92654EAE400
:1021E00025AA08990C9802F055FB00287FF464A9F1
:1021F00032AFDDE92654D2E425AA08990C9812934F
:1022000002F048FB00287FF457A9279C0DF1C80A6B
:10221000129BFFF776B9269B013425490133279499
:10222000CAF800100121072B2693CAF8041000F306
:10223000B7800AF1080A58EA020300F08081139B74
:1022400014991C44CAE90013269B27940133072BD9
:10225000269300F350810AF1080A002AC0F2B381E4
:1022600001334444CAF80060072BCAF80480CDE962
:1022700026347FF785A96BE425AA08990C9802F00B
:1022800009FB00287FF418A9279C0DF1C80AFFF765
:1022900054BB0C98FEF75EFDFFF714B8CDCCCCCC48
:1022A0009C9C0008B09C0008C49C0008B08E0008EC
:1022B000CC9C000832AEB4484FF0CC3E0527CDF898
:1022C0001C9099181D46144641F10001A0FB01C95C
:1022D00029F0030C0CEB990CA1EB0C015B1A62F1D9
:1022E000000C0EFB03F200FB0C22A3FB00C31A44FC
:1022F0000CF001034FEA5C0CA3FB073959180A2DB7
:102300004CEAC27301F1300174F100044FEA520249
:1023100006F8011DD5D232ABDDF81C909B1B0B9348
:10232000FFF7C0B925AA08990C9802F0B3FA002863
:102330007FF4C2A8279C0DF1C80AFFF70AB93046FE
:10234000B946FEF7E9FE20EAE0729DF877300D9479
:102350000B900F970792FFF76EB914460135129B49
:102360004C44C7F80490072D3B60CDE926547FF715
:1023700038AC62E52D238DF87730FFF74BB90B9E13
:102380000C4613460133129A2C44CAF80450072B0A
:10239000CAF80020CDE926346FDC0AF1080AE6E429
:1023A00025AA08990C9802F075FA00287FF484A8F1
:1023B0001F9A0DF1C80A279C3DE700EB0904002293
:1023C0000023DDE91A0104F0C7FA002840F0D880A4
:1023D000239BA34206D230215A1C23921970239BBF
:1023E0009C42F9D81F9A0F92A3EB0608079B472B34
:1023F0003FF4EAAD0E9B662B7FF4EFAD069B0F9A80
:1024000003F00103002A43EA090340F39981002BFA
:1024100040F068810F9B07930B9366230E930695FC
:10242000002F36D02D234FF000098DF87730FFF7BD
:1024300003B925AA08990C9802F02CFAFFF73CB8CA
:1024400009F1010802230C98CDE9003823AB04936D
:1024500020AB03931FAB0293DDE91A2300F05CFE6F
:102460000E9B064600EB0804662BA8D13378302B70
:1024700000F013811F9B1C44A1E725AA08990C9822
:1024800002F008FA00287FF417A8279C0DF1C80A6B
:102490006DE4B9469DF87730FFF7CDB802F10043FF
:1024A0002D271A911B936DE525AA08990C9802F027
:1024B000F1F900287FF400A81F9B0DF1C80A279CA2
:1024C0005DE41446129A3444CAF80460CAF8002045
:1024D000FFF738BB0F9B984500F39C80069B13F0D9
:1024E000010F0F9B40F0088123EAE3720B936723EF
:1024F00007920E9393E725AA08990C9802F0CAF95F
:1025000000287EF4D9AF1F9A0DF1C80ADDE9263400
:10251000A3E64FF0060928E525AA08990C9802F0D1
:10252000B9F900287EF4C8AF279C0DF1C80A17E45A
:102530000E9B662B7FF42FADC846032383E7069BD3
:10254000DD077FF51FA8139B149A1C44CAE90023DA
:10255000269B27940133072B2693CCDC0AF1080A2B
:102560007EE625AA08990C9802F094F900287EF4DA
:10257000A3AF1F9B0DF1C80A279CA8EB030317E428
:102580001F9A23460F922FE7CDCCCCCCCDF81C90D0
:10259000CDF82C9081469DF877300D940F90FFF781
:1025A0004AB86E491291FFF75EBB4FF0FF330A93B2
:1025B000FEF787BF694A1292FFF7A8BB93464FF018
:1025C0000009FEF7DFBE5542103280F2C480644835
:1025D000214610271A46DDF830900446129002E09A
:1025E000103D102D3EDD01321031072ACAE90047A7
:1025F000CDE926210AF1080AF2DD25AA0899484604
:1026000002F048F900287EF457AF0DF1C80ADDE961
:102610002621E5E7139B08EB03020F9B002B0B928F
:1026200056DD22EAE273079367230E93F7E6302321
:1026300030318DF8863004238DF88710159306E528
:10264000069A12F001020F927FF408AD23EAE373B9
:102650000793E4E6424A1292FFF7E5B9C3F101019C
:102660002D23C4E40C4613460133129A2C44CAF8B5
:102670000450072BCAF80020CDE926347FF76EAF4F
:1026800025AA08990C9802F005F900287EF414AFE9
:102690000DF1C80ADDE92634E2E500220023DDE978
:1026A0001A0104F059F9002838D01F9B1C440F93DD
:1026B000A4EB0608A2E6119B002B2BDB9DF87730DC
:1026C000069A284E22F080020692274AFEF7A8BFFB
:1026D0000F9B0B9AC3F101031A44134667220B9315
:1026E0000E92B3E7139B4B44134466220B9323EAE9
:1026F000E3730E92079392E6139A1344EEE70D9B51
:102700009BF80150934653F8049B49EAE9790D93ED
:10271000FEF736BE2D238DF87730D1E7C8F10103DF
:102720001C441F934BE60E4A12922BE6022315938C
:102730008DE40B4A1292FFF7FFB9094A1292C1E6E3
:102740002BB90123662207930E920B9367E6139B26
:1027500001334B44C9E7024A129285E7A08E000874
:10276000B08E0008989C0008949C000810B4044C9B
:1027700013460A460146206810BCFEF78DBD00BF17
:102780000000002070B5ADF58D6D0C4606461AA907
:1027900000910491A18921F00201ADF80C104FF4D1
:1027A000806102910591616E1991E189ADF80E1079
:1027B000E1690791616A0991002106916946FEF776
:1027C0006BFD051E07DB6946304600F0A5F80028C2
:1027D00018BF4FF0FF35BDF80C305B0603D5A38959
:1027E00043F04003A38128460DF58D6D70BD00BFF9
:1027F000B1F90C20F8B516070C46074649D44968CC
:1028000042F400630029A3815FDDA56A002D3ED05C
:10281000002112F480523E683960E16961D10123E0
:102820003846A847451C02466AD0B4F90C30A56A60
:10283000E169580705D56368D21A236B0BB1E36BC6
:10284000D21A00233846A847411C4CD13968B4F944
:102850000C301D293FD82F4ACA40D2073BD523F45C
:102860000062DD04A2814FF00002626022692260F2
:1028700001D5002942D0216B3E6041B104F14003F3
:10288000994202D0384601F071FC002323630020F6
:10289000F8BD0E69002EFAD092070D680E600CBFCD
:1028A0004B690023AD1B8B600CE02B463246D4F8FD
:1028B00024C03846E169E047B0F1000CA5EB0C05F7
:1028C000664406DD002DF0DCE1E7E16B00299CDCCD
:1028D000DDE7B4F90C3043F040034FF0FF30A38143
:1028E000F8BD226DA5E7B4F90C300022626023F434
:1028F0000062DB04A28122692260BCD52065BAE7B0
:102900003B68002B91D01D2B01D0162BE1D13E60EE
:10291000BDE700BF0100402010B5044682B008B1F9
:10292000436B53B1B1F90C0008B902B010BD204699
:1029300002B0BDE81040FFF75BBF0191FEF70AFA55
:102940000199EFE7A0B138B50C4B04461D680DB1F5
:102950006B6B4BB1B4F90C0000B938BD2146284669
:10296000BDE83840FFF744BF2846FEF7F3F9F1E72A
:10297000034A04490448FEF76DBC00BF0000002074
:1029800028010020192900080800002088420ED9DB
:102990008B1883420BD900EB020C002A6ED06246E2
:1029A00013F801CD994202F801CDF9D170470F2AF1
:1029B0000FD8034602F1FF3C002A5FD00CF1010C56
:1029C000013B8C4411F8012B614503F8012FF9D12B
:1029D000704740EA01039B0751D1A2F1100301F1B6
:1029E000200C70B523F00F0501F1100E00F110045A
:1029F0001B09AC445EF8105C0EF1100E103444F864
:102A0000205C5EF81C5C44F81C5C5EF8185C44F8C2
:102A1000185C5EF8145CE64544F8145CEAD10133B6
:102A200012F00C0F02F00F0C01EB031100EB03137B
:102A300029D0ACF1040C1C1F8E462CF003064FEA83
:102A40009C0C1E445EF8045B44F8045FB442F9D168
:102A50000CF1010402F0030203EB840301EB840197
:102A600002F1FF3C4AB10CF1010C013B8C4411F81E
:102A7000012B614503F8012FF9D170BD704702F1B8
:102A8000FF3C03469AE76246EAE700BF01F10B0309
:102A9000162B2DE9F04F074683B023D8102900F2FA
:102AA000AF8001F0CFFE102518230220C44E33441E
:102AB0005C68A3F10802944200F07B8163683846A9
:102AC00023F00303D4E902122344CA6091605A68D8
:102AD000083442F001025A6001F0B6FE204603B00D
:102AE000BDE8F08F002B23F00705C0F28980A942D2
:102AF00000F2868001F0A6FEB5F5FC7FC0F0B6813D
:102B00006B0A00F08180042B00F28081AB0903F195
:102B1000390003F1380EC300A94E3344A3F1080C69
:102B20005C68A44507D10DE0002AE16880F23B8192
:102B30008C450C4606D0636823F003035A1B0F2A0A
:102B4000F2DD7046DFF87C823469444500F0EC80A9
:102B5000636823F0030CACEB05030F2B00F39681A5
:102B6000002BC6E9048880F28581BCF5007FD6F889
:102B700004E080F02B814FEADC0301224FEA5C1C69
:102B8000013302FA0CF256F833104EEA020E06EB4D
:102B9000C302083AC6F804E0C4E9021246F833401A
:102BA000CC6083104FF0010C0CFA03FCF44531D8D3
:102BB0001CEA0E0F07D120F003004FEA4C0C043042
:102BC0001CEA0E0FF9D006EBC00A8146D646DEF8A5
:102BD0000C300BE05A681C46DB6822F00302511BE4
:102BE0000F2900F31F81002980F233819E45F1D126
:102BF00009F101090EF1080E19F0030FE7D169E19F
:102C00000C233B60002469E74FF4007340204FF031
:102C10003F0E81E7B468636823F00309A9EB05035D
:102C20000F2B02DDA94580F0AD80DFF89CB104EBED
:102C300009030820DBF800200093103202EB05089E
:102C400001F0D8FBD6F808140246013105D008F18E
:102C5000FF384142804401EA080841463846009264
:102C600001F0F4FDB0F1FF3F8246009A7FD004EB03
:102C7000090383425BD9B44279D1DBF8040002F145
:102C8000FF3C4044CBF80400D6F80814013100F0B2
:102C90006E8104EB0903AAEB03010144CBF8041095
:102CA0001AF00703009300F03F81C3F10801384692
:102CB0008A440A44D04408EA0C01521A02EA0C0180
:102CC000019101F0C3FD421C00F06981A0EB0A00F4
:102CD000019900EB010848F00102C6F808A0B442CF
:102CE000CAF80420DBF804201144CBF8041032D0D9
:102CF000B9F10F0F40F207816068A9F10C020523BA
:102D000022F0070200F0010010430F2A606004EB7C
:102D10000200C0E901331ED904F10801384601F070
:102D200025FADBF8041016E0D6F804E039E7DBF802
:102D3000041002F1FF3C41440846CBF80410A3D133
:102D400004EB090313EA0C0F9ED109EB0802B068EB
:102D500042F001024260DBF82C208A42DBF830208E
:102D600038BFCBF82C108A4238BFCBF83010B4688B
:102D7000626822F00302531B0F2B40F3C780954279
:102D800000F2C480621945F0010543F001030834E4
:102D900044F8045C3846B260536001F055FD2046AB
:102DA00003B0BDE8F08FA26823443846D1608A6042
:102DB0008DE6DC68A3427FF481AE0230C2E600BF3C
:102DC000380100204001002000080020BCF5206FE1
:102DD0004FEA5C226CD3142A00F2B68002F15C0345
:102DE0005B32DB00F118F3580839994203D191E0C6
:102DF0009B68994204D05A6822F003026245F7D8D2
:102E0000D968C4E902318C60DC60CAE6142B56D95B
:102E1000542B00F2A2802B0B03F16F0003F16E0E16
:102E2000C30079E6D4F808C03846671945F00105B3
:102E30006560CCF80C30C3F808C041F00103C6E966
:102E40000477C7E902887B60A150083401F0FCFCDC
:102E500044E622443846516841F00101516054F87B
:102E6000082FD3609A6001F0EFFC37E6E80805F11F
:102E700008031BE6A44438460834DCF8043043F069
:102E80000103CCF8043001F0DFFC27E6621943F0BF
:102E9000010145F0010538466560C6E90422C2E932
:102EA0000288516044F80C30083401F0CDFC15E67E
:102EB0004FEA9C1202F139033832DB0092E703F14A
:102EC0005C0003F15B0EC30026E65AF8083953454F
:102ED00040F0828010F0030F00F1FF30F5D17368ED
:102EE00023EA0C0373604FEA4C0C0CF1FF329A4258
:102EF00004D38FE64FEA4C0C09F104091CEA030FD6
:102F0000F8D048465FE60123CAF80430384601F09D
:102F10009BFC77E692104FF0010C0CFA02F24EEA9D
:102F2000020EC6F804E06CE70AEB0801384601EA35
:102F30000C01521A02EA0C01019101F087FC431CBA
:102F40007FF4C4AE0099C6E6542A13D84FEA1C3267
:102F500002F16F036E32DB0044E7B3F5AA7F13D8AA
:102F6000EB0B03F1780003F1770EC300D4E5C6F84C
:102F700008A495E6B2F5AA7F19D84FEADC3202F12F
:102F800078037732DB002DE740F25452934219D890
:102F9000AB0C03F17D0003F17C0EC300BCE5009B8C
:102FA0000021A3F108029044A8EB0A0893E640F23E
:102FB00054539A420CD84FEA9C4202F17D037C3272
:102FC000DB000FE74FF47E737F204FF07E0EA3E50A
:102FD0004FF47E737E2205E7736884E700000000EB
:102FE0002DE9F04F036985B00C69A342C0F29080CF
:102FF000013C01F1140500F11408814655F8243014
:103000004FEA840C58F8242005EB8407013308EBC1
:10301000840B9A42B2FBF3F642D30020AA46C6467E
:10302000CDF80C8003468846CDE901C505465AF81F
:10303000042BDEF8001090B257454FEA124C06FB05
:1030400000508AB24FEA104580B206FB0C55A2EB45
:1030500000021A44ABB24FEA1545C3EB224392B2C9
:1030600003EB114342EA03424FEA23434EF8042B99
:10307000DDD24146DDF80C80DDE901C558F80C30A1
:1030800073B9ABF1040BD84504D307E0D84504F17C
:10309000FF3403D25BF80439002BF7D0C9F8104095
:1030A000484601F007FF00282EDB002241469446E7
:1030B00055F8040B0B681FFA80FEAF429AB24FEA34
:1030C0001040A2EB0E026244C0EB224092B200EB31
:1030D000134042EA00424FEA204C41F8042BE7D269
:1030E00058F8242008EB84036AB9043B434504D80C
:1030F00007E0984504F1FF3403D253F80429002A6D
:10310000F7D0C9F810400136304605B0BDE8F08F61
:10311000002005B0BDE8F08F2DE9F04F816B9DB028
:1031200016461F460446299DCDE9026741B1C26B90
:10313000012393404A608B6001F006FC0023A363E7
:10314000B7F10009C0F2B48000232B607C4B33EA56
:10315000090300F0B880DDE9022310461946002279
:103160000023CDE9080103F0F7FB804668B1012395
:10317000289A13602A9B13B1724B2A9A1360DFF8C6
:10318000C88140461DB0BDE8F08F1AAB20460193C0
:103190001BAB0093DDE9082301F0F4FF83465FEAEF
:1031A000195540F0A780DDE91A85454405F2324300
:1031B000202B40F34982C3F1400309FA03F905F2D9
:1031C000124326FA03F349EA0300FDF70BF9013D28
:1031D0000123A1F1F871149300225C4BFCF7C4FFAA
:1031E00051A3D3E9002303F04FF951A3D3E90023FE
:1031F000FCF7BCFF06460F462846FDF703F94EA331
:10320000D3E9002303F040F902460B463046394625
:10321000FCF7ACFF06460F4603F0E6FB00228146B2
:10322000069000233046394603F0A0FB002840F00A
:10323000FD81A8EB0508069D162D08F1FF3A00F266
:10324000A481434B03EBC503DDE90801D3E9002367
:1032500003F08CFB002800F081806B1EBAF1000F98
:1032600006934FF000031193C0F2958100230A9357
:10327000069B002B78DA069B0A9A0B93D21A0A92C5
:103280005A42002310920693269B092B74D8052BD3
:1032900040F3DF81043B00252693269B023B032B52
:1032A00000F28386DFE813F0FD03FA03F003D60390
:1032B000012329F000492B60214BCDF80C9033EA13
:1032C00009037FF448AFC9F3130942F20F73289A38
:1032D00059EA060913601DD02A9BDFF87880002B7D
:1032E0003FF44FAF08F103032A9A404613601DB024
:1032F000BDE8F08FDDE90812CDF85080A5F2FF356A
:10330000C2F313030846DDF8688043F07F5141F4AF
:10331000401161E72A9BDFF84080002B3FF431AF7A
:1033200008F10803E0E700BF61436F63A787D23F5E
:10333000B3C8608B288AC63FFB799F501344D33FA4
:103340000000F07FCD9C0008CC9C00080000F83FF6
:10335000D08E0008DC9C0008D09C0008B8F1000F5B
:1033600040F3178511900A90069B9A440B93002313
:103370001093269B092B8AD900230125CDE92633FA
:103380004FF0FF330C9507930021079BE1631593E2
:10339000204601F0B3FA0590002800F00E86079B46
:1033A0000E2B8CBF002505F00105059BA363002DA6
:1033B00000F01E810B99002940F35C81A64B01F0BF
:1033C0000F02C8054FEA211503EBC203D3E90067DA
:1033D00040F11F83A14B05F00F054FF00308D3E91F
:1033E0000823DDE9080103F079F9CDE90E018DB17B
:1033F000DFF86892E90709D53046394608F1010837
:10340000D9E9002303F040F806460F466D1009F194
:103410000809EFD132463B46DDE90E0103F05EF9C3
:10342000CDE91201119B53B100228D4BDDE91267EA
:103430003046394603F09AFA002840F0B1844046FD
:10344000FCF7E0FFDDE9122303F01EF8854B0022B4
:10345000FCF78CFE079B0646A1F15077002B00F08D
:10346000AE800B9B0E93079B18937B4AB046189B2C
:10347000B94602EBC303DDE9126753E9022339467B
:103480003046CDE9162303F0AFFA0546FCF7BAFF44
:1034900002460B46304639463035FCF765FE059B43
:1034A00006460F460C98591CEDB21291DDE9162321
:1034B000002800F0F98200206B4903F00FF9424622
:1034C0004B46FCF751FE059A3B4680461570324646
:1034D000894603F069FA002840F04F85CDF864A0D2
:1034E0000025CDF858B0DDF848A0DDF860B018949C
:1034F0002AE001355D4580F2CA84404649460022F3
:103500005A4B02F0C1FF0022584B80468946304694
:10351000394602F0B9FF0F46064603F065FA044645
:10352000FCF770FF02460B46303430463946FCF754
:103530001BFE42464B460AF8014B06460F4603F077
:1035400015FA002840F0AA8432463B460020444940
:10355000FCF70AFE42464B4603F008FA0028C8D0A2
:10356000DDF858B05546189C059902E0A94200F0D4
:103570006A842A4615F8013D392BF7D00133DBB2B6
:103580002B70DDF81480059219E10123BAF1000FC8
:103590001193BFF66BAEC8F101034FF0000A0A9316
:1035A00066E64046FCF72EFFDDE9122302F06CFFD1
:1035B00000222C4BFCF7DAFD0646A1F150770022E1
:1035C0002B4BDDE91201FCF7CFFD32463B4680462E
:1035D000894603F0E9F9002840F015844046494641
:1035E000324607F1004303F0C1F9002840F083811F
:1035F0001B9B002B03DB0B9A0E2A40F35F810C9A76
:10360000002A66D0269A012A40F3F283079A109B7B
:10361000551EAB42C0F22983002AA3EB050580F2B8
:1036200079840A9B079AA3EB02082BE34846FCF730
:10363000E9FE32463B4603F08FF900287FF4F9ADEE
:1036400009F1FF330693F4E5C3F1200306FA03F012
:10365000BBE5012521E600BFD08E0008C08F000821
:103660000000F03F00001C400000E03F000024404C
:103670000000144000F0F1820B9B5E42B14B06F05B
:103680000F0203EBC203DDE90801D3E9002302F0D6
:10369000FBFE3611CDE90E0100F06184AA4F002334
:1036A0004FF00208F20706D508F10108D7E9002318
:1036B00002F0EAFE2B46761007F10807F2D1CDE9B9
:1036C0001201002B7FF4AEAEDDE90E23CDE912230B
:1036D000A8E60023109DDDF828801E460C93B8F163
:1036E000000F0DDDBAF1000F0ADDD04543460A9AFE
:1036F000A8BF5346D21AA8EB0308AAEB030A0A9202
:10370000109B53B10C9B13B1002D40F0CF82594652
:10371000109A204601F000FB83460121204601F06B
:103720001BFA069B0746002B40F05E81269B012B6F
:1037300040F376810123534413F01F0308D0C3F1F3
:103740002002042A00F3678208D0C3F13C0300E0A2
:103750001C230A9A98449A441A440A920A9B002B02
:1037600005DD59461A46204601F030FB8346BAF182
:10377000000F05DD39465246204601F027FB07467B
:10378000269B022B119BD4BF00250125002B40F066
:10379000B580079B002B26DC2DB3079B002B00F088
:1037A0003D82279BDDF81480DB430E93394620468B
:1037B00001F0CAF81EB13146204601F0C5F859465D
:1037C000204601F0C1F800220E9B059901330A70D2
:1037D000289A13602A9B002B3FF4D3AC4046196013
:1037E0001DB0BDE8F08F0C9B002B00F0A480B8F159
:1037F000000F05DD31464246204601F0E7FA064655
:10380000069B002B40F02C83B146059D079A6B1E4A
:1038100006971A44029B03F0010308920A93069943
:103820005846FFF7DDFB31468246584601F042FB21
:10383000069980464A4620460AF1300701F05AFBB5
:10384000C3680146002B40F055820790584601F0AE
:1038500031FB07990790204601F076F8269B079ADE
:10386000134340F07A820A9B002B00F05C83B8F18E
:10387000000FC0F25583089BA846AB4208F8017BB5
:1038800000F03B83594600230A22204601F066F8E7
:103890004E45834631464FF000034FF00A02204662
:1038A00000F0558201F05AF84946064600230A22E4
:1038B000204601F053F845468146B0E7214B03EB23
:1038C000C203D3E9009A279B002B80F20582079B55
:1038D000002B00F3018273B900221C4B484651466D
:1038E00002F0D2FD02460B46DDE9080103F048F87C
:1038F000002800F0888200273E4652E739465846A5
:1039000001F0D8FA0028BFF644AF0B9B59460A22B3
:103910002046013B0B93002301F020F80C9B8346CB
:10392000002B40F00B83159B002B159B079302DCAB
:10393000002D7FF432AFDDF814800125DDF81C90F6
:103940000EE000BFD08E0008C08F000800001440B9
:10395000594600230A22204601F000F8013583462B
:1039600039465846FFF73CFB4D4500F1300308F857
:10397000013BEDDB079A0025002ACCBF90464FF0B3
:103980000108059A9044594601222046029301F00D
:103990001DFA3946834601F08DFA002840F338823B
:1039A000059A02E0904500F0428218F8013CC246B8
:1039B00008F1FF38392BF5D0013388F800300B9B24
:1039C0000E933946204600F0BFFF002E00F03682ED
:1039D0002DB1B54203D02946204600F0B5FFDDF8F1
:1039E0001480CDF814A0E6E601461A46204601F000
:1039F00093F9269B0746012B40F34A810023069347
:103A00003B6907EB8303186901F052F8C0F120030A
:103A100091E6DDE908234FF00208CDE90E23E6E444
:103A2000029B002B7FF486AEDDE90212C2F3130382
:103A3000002B7FF47FAEAB4B13402BB10A9B0AF1F6
:103A4000010A01330A930123069A0693002A3FF4E0
:103A500071AED5E701230C93279B0B9A1344159362
:103A60000133012B1E460793B8BF0126172E40F3E2
:103A70009282012204235B001146013203F11400FB
:103A8000B042F8D9E16383E401230C93279B002B18
:103A900040F37A811E4615930793E7E700230C93C2
:103AA000DAE700230C93F1E74046494602F0ECFCCC
:103AB000059B1D70189B012BCDE90C0100F03C8289
:103AC000189D059BDDF848801D440022864B30463A
:103AD000394602F0D9FC0F46064602F085FF8146C2
:103AE000FCF790FC02460B4609F130093046394696
:103AF000FCF73AFB08F8019B454506460F46E4D122
:103B000000227A4BDDE90C8940464946FCF72EFB42
:103B100032463B4602F02AFF002840F09E81424692
:103B20004B4600207149FCF71FFB32463B4602F032
:103B30003BFF002840F08B801B9B002BFFF6C9AD9C
:103B40000B9B0E2B3FF7C5AD694B0B9ADDF814802C
:103B500003EBC203D3E9009ADDE908674A465346FE
:103B60003046394602F0BAFD02F03EFF0546FCF74A
:103B700049FC4A46534602F087FC02460B46304653
:103B80003946FCF7F1FA05F13003059A1370079BEB
:103B9000012B129B00F0F681C3F10102CDF808B0B1
:103BA000CDF818809846DDF81CB0079414461DE047
:103BB0004A4653463046394602F090FD02F014FF63
:103BC0000546FCF71FFC4A46534602F05DFC0B46D7
:103BD000024639463046FCF7C7FA05F1300308F8CB
:103BE000013B08EB04035B4500F0628100223E4B81
:103BF00002F04AFC0022002306460F4602F0ACFE0B
:103C00000028D5D0CDF81480DDF808B0DDE90684B1
:103C10000B9B0E93D3E5C3F11C039AE539460522AD
:103C2000204600F09BFE07465846394601F042F90F
:103C300000287FF7B6ADDDF81480059B01330593AE
:103C40000B9B01330E93312388F80030AEE52A46F2
:103C500015F8013D302BFAD093E4DDE908234FF04D
:103C60000208CDE91223FFF7DDBB109B069AEB1A81
:103C7000109500251A440A9B06929846079A134409
:103C800092440A930121204600F066FF064626E58D
:103C9000029B002B7FF4B2AEDDE90201C1F31303F6
:103CA0000A46002B3FF4C7AE0690A9E631462A46E5
:103CB000204601F031F806465A462046314600F0CB
:103CC00079FF59468346204600F03EFE109B5B1B61
:103CD00010933FF422AD1AE5059B5A1C98461292A8
:103CE0003AE700BF0000F07F000024400000E03F02
:103CF000D08E000820460797069F00F025FEB8F1F9
:103D0000000F079B08DB029A269902F0010241EAA4
:103D1000080852EA080231D159460122204602938E
:103D200001F054F83946834601F0C4F80028029B9C
:103D300040F31D81392B00F0E5800AF13103AA46DA
:103D40000AF8013B35460B9B4E460E9339E600F0D0
:103D500005FE45460646814661E5B8F1000FC0F212
:103D60001E81269B43EA08080A9B53EA080800F0D4
:103D70001681002A7FF77FAD3B46069F392B00F066
:103D8000C180AA460133DBE7012327930793FFF79E
:103D9000FBBAC8F10103824611900A93FFF7E4BA17
:103DA000079B002B3FF4FDAB159D002D7FF720AC4A
:103DB0000B9B304639460022013B0E93884B02F0A4
:103DC00063FB02460F4608F101001646CDE9126773
:103DD000FCF718FB32463B4602F056FB0022814BB3
:103DE000FCF7C4F918950646A1F15077FFF73DBBE3
:103DF000149A72B303F233430A9A9A44109D904680
:103E00001A440A923EE70027DDF814803E4614E784
:103E100003D1029BDB073FF5C3AD18F8013CC24656
:103E200008F1FF38302BF8D00B9B0E93C9E50B9BA4
:103E3000059A01330E9331231370C2E5DDF8148027
:103E4000CDF814A0BBE40E9B01330E933123FFF792
:103E500097BB1A9BC3F13603CEE70599FFF789BBE1
:103E60007168204600F04AFD0546002800F08C806D
:103E7000336906F10C010C3002339A00FCF7E2FDC5
:103E800029460122204600F0A1FF8146BDE4DDF86D
:103E900064A0DDF858B0189CFFF7AABBDDF81480C9
:103EA000DDF858B0189CCDF848A0CDF814A086E4F1
:103EB000CDF81480DDF808B0DDE9068402460B4633
:103EC000FCF754F94A46534606460F4602F06CFD8D
:103ED00058B94A4653463046394602F03DFD00285F
:103EE0003FF496AEE9077FF593AE0B9B4146059DE7
:103EF0000E93CDF81480FFF73CBB3B463546069F3A
:103F00004E4640E5A84639233546059A4E4608F800
:103F1000013B4AE50A9B9244984613440A93B1E652
:103F20003B46069F0BE73B46069F392BEAD0B8F18C
:103F3000000F3FF702AF02E7129DE1E53146002393
:103F40000A22204600F00AFD159B0646002B159B11
:103F500007933FF74CAC002D7FF41FAC47E4DDE93D
:103F60000E234FF00208CDE91223FFF75BBA7FF46E
:103F7000E6AEDA077FF5E3AEDCE6129BDDF81480EF
:103F800005931CE4059399E70246174B40F2EF2195
:103F9000164800F08FFC0021E163FFF7F9B9002A11
:103FA0003B46069F3FF7B8AEC9E6002520462946A6
:103FB000E56300F0A3FC059030B90B4B002240F202
:103FC000AF110A4800F076FC059B01222795A363F8
:103FD0004FF0FF330C9215930793FFF709BB00BF17
:103FE0000000244000001C40E09C0008F49C0008F5
:103FF00038B52F4B05460C461B6813B15A6B002A87
:1040000045D0B4F90C30180716D52269F2B113F077
:10401000010107D0616900204942A060A1613AB165
:10402000002038BD980758BF6169A160002AF7D108
:10403000190638D4104638BDD9062CD55A0712D4E3
:10404000226943F00803A381002AE0D103F4207120
:10405000B1F5007FDBD02146284601F0A1F9B4F983
:104060000C302269D3E7216B51B104F14002914237
:1040700004D0284600F07AF8B4F90C30002222630C
:104080000021226923F02403C4E90021D9E718465E
:10409000FCF760FEB5E7092243F040032A60A381E4
:1040A0004FF0FF3038BD43F04003A381F8E700BF75
:1040B000000000202DE9F8430646DFF8A480082020
:1040C000894600F097F90546304600F0BBFBD8F86A
:1040D00008305F6827F00307A7F11104A4EB090477
:1040E0002C44B4FBF5F4013C05FB04F4A54208DCC8
:1040F0000021304600F0AAFBD8F808303B44984233
:1041000005D0304600F0A0FB0020BDE8F8836142F6
:10411000304600F09BFB01300FD03F1B114AD8F80E
:104120000830304647F001075F6013681B1B1360BF
:1041300000F08AFB0120BDE8F8830021304600F042
:1041400085FBD8F80820831A0F2BDADD43F0010332
:1041500004495360044B1B68C01A0860D1E700BFD4
:1041600038010020040800204005002000297CD0F0
:10417000F8B50C46064600F065FB774F54F8043C52
:10418000A4F10805D7F808C023F0010168184268B7
:10419000844522F0030200F08380DB0700EB020C71
:1041A000426033D454F8084CDCF8043007F1080CB2
:1041B0002D1B214403F00103AC68644564D0D5F89D
:1041C0000CE0C4F80CE0CEF80840002B00F0818031
:1041D00041F001036B600160B1F5007F22D2CB0892
:1041E0000122490901338A4079680A4357F833109C
:1041F0007A6007EBC302083AC5E9021247F8335068
:10420000CD603046BDE8F84000F01EBBDCF804305D
:10421000DB072BD541F00103B1F5007F44F8043CE6
:104220000160DCD3B1F5206F4FEA512353D28B09E3
:1042300003F1390003F13802C300F818FB580838BD
:10424000984203D161E09B68984204D05A6822F0FA
:1042500003028A42F7D8D868C5E902308560304643
:10426000DD60BDE8F84000F0EFBA7047114407F197
:10427000080C836863453FD0C268DA60936041F000
:1042800001036B606950A7E7002B5FD10A44D0E9B6
:104290000213CB60996042F001036B60AA50B0E753
:1042A0000A44D90707D454F8083CED1A1A44D5E952
:1042B0000213CB60996042F001036B60274BBD6035
:1042C0001B6893429DD8264B30461968FFF7F2FED3
:1042D00097E71144CDE7142B08D9542B1DD80B0BAD
:1042E00003F16F0003F16E02C300A6E703F15C0067
:1042F00003F15B02C300A0E741F00103C7E90455E5
:10430000C5E902CC6B6069507BE70121921001FA8C
:1043100002F279680A437A609EE7B3F5AA7F06D86D
:10432000CB0B03F1780003F17702C30085E740F27D
:104330005452934206D88B0C03F17D0003F17C02AA
:10434000C3007AE74FF47E737E2276E741F00103E3
:104350006B60016055E700BF380100204405002074
:104360000008002070B539B106460C4608B1436B11
:1043700083B3B4F90C3013B90025284670BD21462B
:104380003046FEF735FAE36A054633B1E169304657
:1043900098470028B8BF4FF0FF35A3891B061CD4EF
:1043A000216B41B104F14003994202D03046FFF73E
:1043B000DDFE00232363616C21B13046FFF7D6FE9A
:1043C00000236364FCF7D6FC0023A381FCF7D4FC34
:1043D000284670BDFCF7BEFCCBE721693046FFF7ED
:1043E000C5FEDDE7024B01461868FFF7BBBF00BF03
:1043F00000000020082802D14FF48050704708B513
:10440000FCF71AFB162203464FF0FF301A6008BD76
:1044100010B50C46B1F90E1001F0C0F8002803DB0E
:10442000236D0344236510BDA38923F48053A38126
:1044300010BD00BF002070472DE9F0410C46B1F9D6
:104440000C101F460546CB0516460BD421F48051AF
:104450003B4632462846A181B4F90E10BDE8F04132
:1044600000F0DAB9B4F90E100223002201F0E6F8E8
:10447000B4F90C10EAE700BF10B50C46B1F90E1004
:1044800001F0DCF8421CB4F90C3004D043F4805342
:104490002065A38110BD23F48053A38110BD00BF0C
:1044A000B1F90E1000F0E4B92DE9F04F164683B0D3
:1044B000002900F09E800C4606F10B05804600F0B6
:1044C000C1F954F8040C162DA4F1080920F00307D3
:1044D00062D8102200231546B542C0F0A280002BFE
:1044E00040F09F80974261DADFF8F8B209EB0701EC
:1044F000DBF80830D1F804C08B4200F097802CF034
:1045000001030B445B68DB0768D42CF0030C07EB5A
:104510000C03934245DAC30712D454F8083CA9EBC4
:10452000030ADAF8043023F0030084440CEB070B91
:104530005A4540F3FE8007EB000B5A4540F3D48008
:1045400031464046FEF7A2FA0646002800F02981CF
:1045500054F8043CA0F1080223F001034B449342B9
:1045600000F0B1803A1F242A00F2DF80132A00F203
:10457000B0800346224611681960516859609268FC
:104580009A6021464046FFF7F1FD404600F05CF995
:10459000304603B0BDE8F08F25F007052A46EB0F43
:1045A0009AE71F46D1E90223D3609A60781BD9F8B5
:1045B000043009EB07020F2803F001031FD83B4327
:1045C000C9F80430536843F001035360264640465F
:1045D00000F03AF9304603B0BDE8F08FC307AFD41E
:1045E00054F8083CA9EB030ADAF8043023F003007E
:1045F000A1E7114603B0BDE8F04FFEF747BA2B43E1
:1046000009EB050140F00100C9F80430083141F818
:10461000040C4046536843F001035360FFF7A6FDC6
:10462000D4E70C23C8F800300026D3E72CF0030CA5
:1046300005F110010CEB07038B4280F29280C0075A
:104640003FF57EAF54F8083CA9EB030ADAF80430D2
:1046500023F0030084440CEB070399423FF76BAF50
:104660003A1F5646DAF80C1056F8080F242AC16093
:10467000886000F2B080132A40F2AB8021681B2AC8
:10468000CAF808106168CAF80C1000F2AD8008344E
:104690000AF110022168116061685160A16891609F
:1046A0005B1B0AEB0502404643F00103CBF80820F0
:1046B0005360DAF8043003F001032B43CAF80430E6
:1046C00000F0C2F886E750F8043C23F003031F44CF
:1046D0006CE723681B2A03606368436036D804F1E3
:1046E000080200F1080346E73A1F5646DAF80C3094
:1046F000242A56F8081FCB60996022D8132A1ED9A5
:1047000023681B2ACAF808306368CAF80C303CD802
:1047100008340AF1100322681A6062685A60A268BD
:104720009A6034465F46D14640E72146FEF72EF9AF
:1047300027E7D1E902133A1FCB609960D5E73346EA
:10474000E9E721463046FEF721F9EAE7A368242A83
:104750008360E368C36028D004F1100200F1100305
:1047600009E75B1B09EB05024046264643F00103BF
:10477000CBF80820536054F8043C03F001032B43AA
:1047800044F8043C00F060F824E7A368242ACAF83F
:104790001030E368CAF8143010D010340AF118034E
:1047A000B9E7404600F050F83EE7236904F11802EB
:1047B00003616369436100F11803DCE6236918347F
:1047C000CAF8183054F8043CCAF81C300AF1200327
:1047D000A1E732465EE7214630460193FEF7D6F860
:1047E000019B5DE738010020A168242ACAF8101057
:1047F000E168CAF8141003D010340AF1180249E72E
:1048000022691834CAF8182054F8042CCAF81C205D
:104810000AF120023EE700BF38B50C468446114637
:10482000074D1A460023204664462B6003F088FD9E
:10483000431C00D038BD2B68002BFBD0236038BD53
:1048400034080020704700BF704700BF38B5002211
:10485000064D044608462A6003F052FD431C00D072
:1048600038BD2B68002BFBD0236038BD34080020F6
:1048700038B50022064D044608462A6003F020FDA4
:10488000431C00D038BD2B68002BFBD0236038BD03
:1048900034080020936810B514461BB9184600234D
:1048A000636010BDFCF7BCFA0023A36000236360C3
:1048B00010BD00BF0A4D14461A4603462E680D4629
:1048C00000B5F06885B044B106490095CDE9011402
:1048D000054900F087FE00F021FE04490C46F4E78C
:1048E00000000020209D0008309D00088C990008E1
:1048F00008B513460022FFF7DDFF00BF38B5436C53
:1049000005460C464BB153F8240080B1026843F8C9
:1049100024200023C0E9033338BD2122042100F004
:1049200005FE034668640028EDD1002038BD012152
:10493000284601FA04F56A1D920000F0F7FD0028F0
:10494000F3D0C0E90145E4E731B1436C4A6853F85C
:104950002200086043F82210704700BF2DE9F041A3
:1049600007460E461C460D6901F1140E0020DEF8C4
:10497000001001308BB285424FEA114102FB034324
:104980004FEA134C9BB202FB01CC03EB0C434FEA02
:104990001C444EF8043BEADC3CB1B368AB4207DD93
:1049A00006EB850301355C6135613046BDE8F08179
:1049B000716838460131FFF7A1FF8046A8B132691E
:1049C00006F10C010C3002329200FCF73BF87B6CD4
:1049D000726853F82210316043F82260464606EBB5
:1049E000850301355C613561DFE70246024BBA2180
:1049F0000248FFF75FFF00BFE09C0008609D0008D1
:104A00002DE9F8431E4617460833264A0C46092E60
:104A100082FB03124FEAE3730546C3EB620338DD02
:104A20004FF0010C00214FEA4C0C01316345FADCD8
:104A30002846FFF763FF014668B3089B092F4361CF
:104A40004FF00103036112DC0A340927BE420BDD7B
:104A5000F61B264414F8013B0A222846303BFFF798
:104A60007DFFB4420146F5D10846BDE8F88304F164
:104A700009093C44C84618F8013B0A222846303B45
:104A8000FFF76CFFA0450146F5D1A7F108044C449F
:104A9000DCE70021CCE70246034BD3210348FFF7B4
:104AA00009FF00BF398EE338E09C0008609D0008D4
:104AB000B0F5803F034618D203041020B3F1807F85
:104AC00001D208301B02B3F1805F01D204301B0118
:104AD000B3F1804F03D3002B06DB013070479B00FE
:104AE00005D45B0005D4202070470020E6E70230A3
:104AF00070470330704700BF0368014613F0070298
:104B000007D0DA071FD4980721D55B0801200B6076
:104B1000704798B2A0B11046DAB20AB908301B0A41
:104B20001A0701D104301B099A0701D102309B08F2
:104B3000DA0703D45B0800F1010006D00B60704770
:104B40001B0C1020E8E700207047202070479B08CE
:104B500002200B60704700BF38B5436C04460D4619
:104B60004BB15868B0B102685A6000220123456118
:104B7000C0E9032338BD2122042100F0D7FC0346FD
:104B800060640028EDD1094B002240F2451108482D
:104B9000FFF790FE1C220121204600F0C7FC0028F0
:104BA000F1D001220223C0E90123DEE7E09C0008E6
:104BB000609D00082DE9F04FD1F8108085B015698F
:104BC0000E469246A84505DB2A46534645468A4688
:104BD00090461E4605EB0804DAE90113A342B8BF6C
:104BE0000131FFF78BFE002800F08B8000F11407E5
:104BF00007EB840E774505D23B46002243F8042B91
:104C00009E45FBD814360AF1140906EB880809EB17
:104C10008505464568D2A5EB0A030AF1150ACDF8C9
:104C200008E0AE46153B039423F0030304335545D7
:104C30002CBF9B464FF0040B824605E0090C2CD19B
:104C4000B04507F104074CD956F8041B8DB2002D6E
:104C5000F4D0CC463C46002301965CF8040B216856
:104C600086B2E6458AB24FEA104005FB06224FEABB
:104C700011411A4405FB001101EB124192B24FEAB7
:104C8000114342EA014244F8042BE6D8019E47F85A
:104C90000B3056F8041C090CD2D03B680022484661
:104CA0003D461C46944602889BB201FB02C202EBC1
:104CB000144243EA024345F8043B50F8043B2C6895
:104CC0004FEA134C7045A3B201FB0C3303EB1243C4
:104CD0004FEA134CE7D3B04547F80B3007F1040710
:104CE000B2D85046DDE902E4002C02DC05E0013CCC
:104CF00003D05EF8043D002BF9D0046105B0BDE897
:104D0000F08F0246024B4FF4B1710248FFF7D2FD1B
:104D1000E09C0008609D000812F003032DE9F041BB
:104D2000144607462CD10D46A4101CD03E6C86B309
:104D3000E3074FF0000806D4641014D03068A8B11F
:104D40000646E307F8D5324629463846FFF732FFD4
:104D500035B17B6C696853F821202A6043F82150F3
:104D600064100546EAD12846BDE8F0813246314656
:104D70003846FFF71FFF30600646C0F80080E0E7C6
:104D8000013B0F4A52F823200023FFF7E7FD0546B9
:104D9000CAE701213846FFF7B1FD064640B10123BD
:104DA00040F27122C0E90432002338640360BFE797
:104DB0000246044B40F245110348FFF77BFD00BF5C
:104DC000C08E0008E09C0008609D00082DE9F047B7
:104DD0000C46904606464FEA62192769A36807EB1E
:104DE000621749687D1C9D4203DD5B0001319D42D5
:104DF000FBDC3046FFF782FD002850D0B9F1000FF0
:104E000000F1140C0EDD09F10502634600214FEAA2
:104E1000820E00EB820243F8041B9342FBD1AEF1F9
:104E200014039C4404F11403216918F01F0803EBD8
:104E300081012BD0C8F12009E6464FF0000A1A681C
:104E400002FA08F242EA0A024EF8042B53F8042B45
:104E5000994222FA09FAF2D80B1B04F11502153B0C
:104E600023F003030433914238BF04234CF803A01A
:104E7000BAF1000F00D13D46736C6268056153F8CA
:104E80002210216043F82240BDE8F087ACF1040C09
:104E900053F8042B99424CF8042FF9D8EBE702465B
:104EA000024B4FF4EF710248FFF704FDE09C00084D
:104EB000609D000884460B690069C01A15D10CF189
:104EC000140C14310CEB830201EB830310B401E0EA
:104ED000944508D252F8044D53F8041D8C42F7D083
:104EE00004D24FF0FF3010BC70477047012010BC57
:104EF000704700BF2DE9F04F15460A6983B0884618
:104F00002B69D21A002A40F08B8001F1140605F1BA
:104F1000140101EB830106EB830302E09E4280F063
:104F2000828053F8044D51F8042D9442F6D078D382
:104F30002B460024454698466968FFF7DFFC0028A9
:104F400000F08C802E6905F1140B08F1140ED8F8CE
:104F5000103000F1140A05F110020EEB83094FF036
:104F6000000C0BEB86015746C460CDF804B05EF828
:104F7000044B52F8045F1FFA84FBF145ABB24FEAD1
:104F80001444A3EB0B03C4EB1544634404EB234428
:104F90009BB24FEA244C43EA044347F8043BE6D86B
:104FA000A9EB080408F11508DDF804B0C145A4F127
:104FB000150434BF4FF000084FF00108A408B8F101
:104FC000000F04F101024FEA820208BF04220BEB3A
:104FD00002055244A94231D917462C4654F8043BE5
:104FE0001FFA83F8A1424FEA134E6344C4449BB2B4
:104FF0000EEB2C4C43EA0C434FEA2C4C47F8043B95
:10500000ECD80139491B21F003010A4423B952F8B5
:10501000043D013E002BFAD0066103B0BDE8F08FDD
:1050200086DA012488E70021FFF768FC78B10122C5
:105030000023C0E9042303B0BDE8F08FB8F1000FEE
:105040004FEA840408BF00240AEB0402DEE70246AC
:10505000064B40F237210648FFF72CFC0246034B73
:1050600040F245210248FFF725FC00BFE09C000804
:10507000609D0008114B0B40A3F15073002B03DD22
:1050800000221946104670475B42B3F1A07F4FEAF9
:10509000235106DA4FF4002300220B411046194633
:1050A000704714391E2904DD0122002310461946D9
:1050B00070474FF00042CA40F7E700BF0000F07FA2
:1050C0002DE9F041026900F1140707EB820252F862
:1050D000046CA2F104083046FFF7EAFCC0F120039B
:1050E0000A280B6035DD4745A0F10B011BD252F8B1
:1050F000083C31B3C1F1200C8E40A2F1080023FA24
:105100000CF48B40874246EA040646F07F5545F48E
:1051100040151AD252F80C2C294622FA0CF21343ED
:105120001846BDE8F0810B280AD006FA01F10023E9
:1051300041F07F55184645F440152946BDE8F081F9
:10514000002346F07F5545F4401518462946BDE832
:10515000F081C0F10B03474526FA03F141F07F557A
:1051600045F4401509D3002200F11503294606FA3B
:1051700003F313431846BDE8F08152F8082CDA40D7
:10518000F2E700BFF0B5012183B016461F46FFF7D6
:10519000B5FB0546002849D0C7F30A54C7F31303EB
:1051A0000CB143F48013002E019315D101A8FFF731
:1051B000A3FC0199012200F1200369612A611CB35B
:1051C000A4F23344C3F135001C44089B1C60099BC6
:1051D0001860284603B0F0BD68460096FFF78CFCC7
:1051E000019A034600B3C0F1200102FA01F1C24066
:1051F000009801920143002AC5E905120CBF012263
:1052000002222A61002CDBD1A3F23243089805EB7D
:10521000820103600869FFF74BFC099BC0EB421059
:105220001860284603B0F0BD0099E4E70246034B3E
:1052300040F20F310248FFF73DFB00BFE09C000841
:10524000609D00082DE9F04383B088468146694699
:10525000FFF736FF04460D46404601A9FFF730FF31
:10526000D9F81030D8F81020A3EB020CDDE9003299
:105270009B1A03EB4C13002B0BDD05EB03573D464C
:1052800002460B462046294601F028FA03B0BDE845
:10529000F083C3EB033301EB03594946F0E700BF4A
:1052A000172870B506460ADD002008490024084D7D
:1052B00022462B4601F0E8F8013EF9D170BD054BBE
:1052C00003EBC003D3E9040170BD00BF0000F03F51
:1052D00000002440C08E0008013902F114034FEA97
:1052E000611C116903EB81010CF1010C8B4200EB95
:1052F0008C0C16D210B5A0F1040E53F8044B994251
:105300004EF8044FF9D88B1A153B23F003030433EE
:105310001844844504D9002340F8043B8445FBD855
:1053200010BD844505D9002340F8043B8445FBD8D3
:105330007047704703694A111430934209DA00EB51
:10534000830302E053F8042DA2B98342FAD8002067
:10535000704700EB8203F8DD11F01F01F5D010B4A7
:1053600050F8224024FA01F28A40944208D00120E9
:1053700010BC70470120704753F8042D002AF6D165
:105380008342F9D8002010BC704700BFF03070474E
:105390000048704738060020004870473806002053
:1053A000B1F90C302DE9F0410C46990796B008D5BB
:1053B00004F1430301222360C4E9043216B0BDE8BE
:1053C000F081B4F90E100646002926DB6A4600F08B
:1053D0004BF900281FDB019D4FF480684FF40067F4
:1053E00005F47045A5F50055B5FA85F56D094146FA
:1053F0003046FDF74BFBE8B1B4F90C30C4F814802B
:1054000043F0800320602061A3813DBB3B43A38127
:1054100016B0BDE8F081B4F90C3013F0800519D056
:105420004FF040080025304641462F46FDF72EFB41
:105430000028E1D1B4F90C309A05BFD423F003035E
:1054400004F14302012143F002032260C4E9042174
:10545000A381B3E74FF480682F46C8E7B4F90E1074
:10546000304600F017F910B9B4F90C30CEE7A38933
:1054700023F0030343F001031BB2C7E770B50C46EA
:10548000B1F90E1096B0154600291E4614DB6A4687
:1054900000F0EAF800280FDB01994FF480634FF425
:1054A000006001F47041A1F50051B1FA81F14909A0
:1054B00031602B6016B070BDA18911F0800106D05B
:1054C00000214023084631602B6016B070BD4FF4B8
:1054D0008063084631602B6016B070BD10B4034C79
:1054E000D4F8E440A44610BC604700BF4805002043
:1054F00082B049B15AB16BB113780B601278101EAB
:1055000018BF012002B0704701A9002AF3D110464C
:1055100002B070476FF00100F4E700BF062008B545
:1055200000F066F9012002F0C9FE00BF38B5A1FB0A
:10553000021434BBFDF7AAFA054630B350F8042C28
:1055400022F00302043A242A0CD8132A0FD91B2A6A
:10555000C0E9004412D9242AC0E9024418D000F15D
:10556000100205E02146FBF715FA284638BD024631
:1055700000232846C2E90033936038BD00F10802D9
:10558000F6E7FBF759FA0C2303600025284638BDDF
:1055900000F11802C0E90444EAE700BF38B50C4640
:1055A00084461146074D1A460023204664462B6068
:1055B00002F0A4FE431C00D038BD2B68002BFBD0AA
:1055C000236038BD340800200CB400B583B004ABB0
:1055D00053F8042B019300F0C7F903B05DF804EB16
:1055E00002B070470EB410B583B0074C014605AB4E
:1055F000206853F8042B019300F0B6F903B0BDE81E
:10560000104003B0704700BF0000002010B4034CEE
:10561000D4F8E040A44610BC604700BF4805002015
:10562000034649B1FF2A02D801200A7070478A2236
:105630004FF0FF301A6070470846704738B50C4687
:1056400084461146074D1A460023204664462B60C7
:1056500002F052FE431C00D038BD2B68002BFBD05B
:10566000236038BD3408002070B50C460346084D51
:105670000026204611461C462E6002F025FE431CE3
:1056800000D070BD2B68002BFBD0236070BD00BF25
:105690003408002038B50022064D044608462A602A
:1056A00002F01AFE431C00D038BD2B68002BFBD043
:1056B000236038BD3408002038B5D0F818410CB14B
:1056C000002038BD05468021FDF7E0F90246C5F807
:1056D000180130B1031F7C3243F8044F9342FBD1D1
:1056E000EEE74FF0FF3038BD1F2930B5054683B0D7
:1056F00009D8D0F818310C4653B153F8240043F8B8
:10570000242003B030BD162303604FF0FF30F8E7CC
:1057100080210192FDF7BAF9019A0346C5F81801F4
:105720000028F2D0011F00F17C05002041F8040F91
:10573000A942FBD1E1E700BF1F2938B505461FD8B4
:10574000D0F818210C466AB152F8213053B1012B20
:1057500006D0591C10D00021204642F8241098474A
:10576000002038BD284600F0FDF8224601462846B4
:10577000BDE8384000F0E0B8162301202B6038BDAA
:1057800016234FF0FF302B6038BD00BF1F292CD8E7
:1057900038B5D0F818310C460546A3B153F824208B
:1057A00003EB84034AB1511C0BD0012A07D000251A
:1057B00020461D609047284638BD012038BD032093
:1057C00038BD022038BD8021FDF760F90346C5F8D9
:1057D000180138B1021F00217C3042F8041F8242B8
:1057E000FBD1DBE74FF0FF3038BD4FF0FF307047A3
:1057F00038B51F28134B1D681ED8D5F8182104464C
:1058000062B152F820304BB1012B05D0591C0FD09A
:10581000002142F820109847002038BD284600F0AB
:10582000A1F8224601462846BDE8384000F084B879
:10583000162301202B6038BD16234FF0FF302B605C
:1058400038BD00BF00000020124B1F2870B51E6835
:1058500009D8D6F8183104460D464BB153F8240048
:1058600043F8245070BD162333604FF0FF3070BDF5
:1058700080213046FDF70AF90346C6F818010028D2
:10588000F3D0021F00217C3042F8041F8242FBD17A
:10589000E4E700BF0000002038B50C4B1D68D5F8C8
:1058A00018410CB1002038BD80212846FDF7EEF8E4
:1058B000C5F8180138B1031F00F17C0243F8044F0A
:1058C0009342FBD1EEE74FF0FF3038BD00000020DF
:1058D00038B51F28174B1D6828D80446D5F818017D
:1058E000A0B150F8242000EB84034AB1511C0BD026
:1058F000012A07D0002520461D609047284638BD64
:10590000012038BD032038BD022038BD8021284643
:10591000FDF7BCF8C5F8180140B1031F00F17C0188
:10592000002243F8042F8B42FBD1DAE74FF0FF301F
:1059300038BD00BF0000002070B50C460346084D7E
:105940000026204611461C462E6002F0CBFC431C6C
:1059500000D070BD2B68002BFBD0236070BD00BF52
:105960003408002002F0B6BC2DE9F04FABB01C4665
:1059700093460291CDE9063018B1436B002B00F03D
:10598000F2840299B1F90C204B6E950405D442F4CF
:10599000005223F400538A814B66980400F1148569
:1059A000029BB3F90C20110740F1EF801B69002B1B
:1059B00000F0EB8002F01A020A2A00F0F5801AAB20
:1059C0000DF1680A0D930023CDE90E33089304937B
:1059D0009BF800305C46DBB1252B19D0254614F826
:1059E000013F0BB1252BF9D1B4EB0B0610D00F9B67
:1059F00033440F930E9B0133072B0E93CAE900B675
:105A000000F312810AF1080A049B334404936B7873
:105A1000002B00F012814FF0000304F1010B6178BC
:105A20004FF0FF388DF82F300023994603930BF188
:105A3000010BA1F12003582B00F20C81DFE813F0D9
:105A4000EF010A010A01EA010A010A010A010A0139
:105A50000A010A01B401E4010A01BF01C4010A01FB
:105A6000DF015900590059005900590059005900E7
:105A7000590059000A010A010A010A010A010A0132
:105A80000A010A010A010A0168000A010A010A0161
:105A90000A010A010A010A010A010A010A01C300F6
:105AA0000A010A010A010A010A0154020A010A0153
:105AB00011040A010A010A010A010A010A010A0184
:105AC0000A010A010A0147026A000A010A010A01E1
:105AD00042026A000A010A013A020A012C02C500C8
